:020000041000EA
:10000000002008205B0100101B0100101D010010E2
:100010001101001011010010110100101101001058
:100020001901001019010010190100101F01001022
:10003000110100101901001021010010230100100E
:100040001101001011010010110100101101001028
:100050001101001011010010110100101101001018
:100060001101001011010010110100101101001008
:1000700011010010110100101101001011010010F8
:1000800011010010110100101101001011010010E8
:1000900011010010110100101101001011010010D8
:1000A00011010010110100101101001011010010C8
:1000B00011010010110100101101001011010010B8
:1000C00011010010110100101101001011010010A8
:1000D0001101001011010010110100101101001098
:1000E0001101001011010010110100101101001088
:1000F0001101001011010010110100101101001078
:100100001101001011010010110100101101001067
:10011000EFF30580103800BE00BE00BE00BE00BE7A
:1001200000BE00BEF2EB8871B4730010D4730010EF
:100130009C01001090A31AE7D3DEFFFF42012110BB
:10014000FF01000014850000793512AB00201E4924
:10015000086006C881F3088810474FF050400068D7
:1001600008B10020F3E70DA40ECC002902D000F066
:1001700012F8F9E71549164A002000E001C1914242
:10018000FCD114498847144988471449884700BE60
:10019000FDE701C901C29A42FBD37047D473001036
:1001A00010010020881300204C8600100000082059
:1001B000000008204C8600100010082000100820C5
:1001C000000000007047000008ED00E088130020E8
:1001D000A81C0020B9460010E1010010B146001033
:1001E00070B504F093FB184E40F6B83002F0E8FA10
:1001F000164804F0CFFB3368002B0BDD0024144DB0
:100200002146144855F8042B04F042FC33680134AD
:10021000A342F5DC0D2001F067FC0D234FF0010235
:1002200042EC443042EC40300B4804F0B3FB00F0A9
:1002300047FC0A4804F0AEFB4FF47A7002F0C0FAB3
:10024000074804F0A7FBF7E7881C0020306F001078
:10025000C0120020846F0010906F0010B46F001067
:10026000EC6F0010F0B54FF0504C8E461F464FF427
:1002700080614FF4006314464FF480754FF40072B0
:10028000CCF82050CCF82020CCF82010CCF820302E
:10029000CCF81810CCF82010CCF82030CCF818107E
:1002A000CCF82010CCF81830CCF81810CCF820106E
:1002B000CCF82030CCF81810CCF82010CCF818303E
:1002C000CCF81810CCF82010CCF82030CCF818104E
:1002D000CCF82010CCF81830CCF81810CCF820103E
:1002E000CCF82030CCF81810CCF82010CCF818201E
:1002F000CCF818504FF40065C30BCCF820204FF019
:1003000050434FF480620CBFA64EA74ECCF820108D
:1003100035604FF40065010A9A614E061A624FF08B
:1003200050434FF4806254BF9E4E9F4E4FF4006C7A
:1003300035608D064FF400659A611A624FF4806251
:100340004FF0504354BF974E974E35604FF40065C1
:100350009A611A62CA064FF050434FF4806254BF4C
:10036000904E914E35604FF400659A611A620B070A
:100370004FF480624FF0504354BF8A4E8A4E35602E
:100380004FF400659A614E071A624FF050434FF4E4
:10039000806254BF834E844E35608D074FF40065F4
:1003A0009A611A624FF480624FF0504354BF7D4E01
:1003B0007D4E35604FF400659A611A62CA0754BFDA
:1003C000784E794E4FF0504335604FF480614FF4D2
:1003D00080754FF40072996119629A619D611A6289
:1003E00019624FF4806203064FF400614FF05043EE
:1003F00054BF6C4D6C4D460629609A614FF4006104
:100400001A624FF050434FF4806254BF654D664D01
:1004100029609A614FF400611A624FF050434FF423
:100420008062850654BF5F4D5F4D29609A61C106A9
:100430001A624FF400614FF480624FF0504354BF92
:10044000584D594D29609A614FF400611A620207B4
:100450004FF050434FF4806254BF524D524D2960CB
:100460009A614FF400611A6243074FF480624FF0C3
:10047000504354BF4B4D4C4D860729609A614FF451
:1004800080611A624FF050434FF4006254BF454DF3
:10049000454D2A609961621E1962C5074FF05043AD
:1004A0004FF480754FF480604FF4007454BF3D4E9C
:1004B0003D4E1112C6F800C0986118629C619D61A2
:1004C0001C6218624FF4006410044FF050434FF464
:1004D000806054BF334D344D4FF4006C2C609861F4
:1004E0004FF4006418624B064FF480604FF05043A5
:1004F00054BF2C4D2C4D8E062C6098614FF4006437
:1005000018624FF050434FF4806054BF254D264D84
:100510002C6098614FF4006418624FF050434FF420
:100520008060CD0654BF1F4D1F4D2C6098610C0795
:1005300018624FF400644FF480604FF0504354BF92
:10054000184D194D2C6098614FF4006418624807EB
:100550004FF050434FF4806054BF124D124D2C6049
:1005600098614FF4006418628B074FF480604FF07D
:10057000504354BF0B4D0C4DCE072C604FF400740C
:1005800098614FF4807518624FF050434FF48060CB
:1005900054BF044E044ED1B2C6F800C09861186230
:1005A00004E000BF200000D0180000D09C619D61D5
:1005B0001C6218624FF4006015064FF050434FF470
:1005C000806254BFA74CA84C4FEA1E2C20604FF409
:1005D00000604C069A611A624FF050434FF48062FB
:1005E00054BFA04CA04C206088064FF400609A6174
:1005F0001A624FF480624FF0504354BF994C9A4CAA
:1006000020604FF400609A611A62CA064FF05043AE
:100610004FF4806254BF934C934C20604FF40060C1
:100620009A611A620B0754BF8E4C8F4C4FF05043A7
:100630004FF4806220604FF400604E0754BF894C35
:10064000894C9A611A624FF050434FF480622060E7
:100650004FF400608D079A6158BF824C1A6248BF00
:10066000814C4FF050434FF480622060CC074FF430
:1006700000619A611A624CBF7B4B20334FF480605B
:100680004FF0504219604FF480744FF40073906142
:1006900010629361146213621062116290611062C1
:1006A00011629061106291619061106211629061BB
:1006B00010629161906110621162906110629161AB
:1006C0009061106291614FF40061906110629361DA
:1006D000946113625FEADE3310620CBF61486248C6
:1006E0004FF0504301604FF480624FF400611CF002
:1006F000400F0CBF5B485C489A611A6201604FF082
:1007000050434FF480624FF400611CF0200F0CBF87
:10071000544855489A611A6201604FF050434FF4B3
:1007200080624FF400611CF0100F0CBF4D484E4822
:100730009A611A6201604FF050434FF480624FF4A7
:1007400000611CF0080F0CBF464847489A611A62C6
:1007500001604FF050434FF480624FF400611CF091
:10076000040F0CBF3F4840489A611A6201604FF085
:1007700050434FF480624FF400611CF0020F0CBF35
:10078000384839489A611A6201604FF050434FF47B
:1007900080624FF400611CF0010F0CBF31483248F9
:1007A0009A611A624FF0504301604FF480624FF437
:1007B00080704FF400719A611A62996198611962B0
:1007C0001A624FF400614FF050434FF480621EF004
:1007D000800F0CBF234824481EF0400F01609A612F
:1007E0004FF400611A624FF050434FF480620CBF27
:1007F0001C481D481EF0200F01609A614FF40061F3
:100800001A624FF050434FF480620CBF15481648EF
:100810001EF0100F01609A614FF400611A624FF0F0
:1008200050434FF480620CBF0E480F481EF0080F73
:1008300001609A614FF400611A624FF050434FF427
:1008400080620CBF074808481EF0040F01609A61DF
:100850004FF400611A624FF050434FF4806208BFBA
:10086000004803E0200000D0180000D018BF9248D4
:100870001EF0020F01609A614FF400611A624FF09E
:1008800050434FF480620CBF8C488B481EF0010F20
:1008900001609A611A624FF400620CBF874C864C6B
:1008A0004FF4007522604FF050434FF480604FF4D6
:1008B00080749861791E18629D619C614FF4006498
:1008C0001D62186208044FF050434FF4806054BF1B
:1008D0007A4D794D0A122C604FF4006498611862C9
:1008E00053064FF480604FF0504354BF734D724D28
:1008F00097062C604FF40064986118624FF05043E3
:100900004FF4806054BF6D4D6B4DD6062C604FF494
:100910000064986118624FF050434FF4806054BFF8
:10092000664D654D2C604FF40064986118624FF07D
:1009300050434FF48060150754BF604D5E4D2C60EE
:1009400054074FF40064986118624FF480604FF0D0
:10095000504354BF594D584D2C604FF4006498617A
:10096000186290074FF050434FF4806054BF534DCE
:10097000514DD2074FF400622C6054BF4F4C4E4C87
:1009800098614FF40075186222604FF050434FF4A5
:1009900080744FF48060CAB2986118629D619C6156
:1009A0001D6218620B064FF400604FF050434FF485
:1009B000806154BF414C404C5706206099614FF410
:1009C000006019624FF050434FF4806154BF3B4CBC
:1009D000394C9606206099614FF4006019624FF01F
:1009E00050434FF4806154BF344C334CD5062060E3
:1009F00099614FF4006019624FF050434FF48061E9
:100A000054BF2E4C2C4C206099614FF40060196249
:100A10004FF050434FF48061140754BF274C264CCD
:100A200020609961500719624FF400604FF48061B3
:100A30004FF0504354BF214C1F4C206099614FF43C
:100A40000060196291074FF050434FF4806154BF2A
:100A50001A4C194C206099614FF4007019624FF4E0
:100A600080744FF40061D3074FF050434FF480621D
:100A700054BF124D104D29609A611A6298611C6230
:100A800018621A6219629A611A6219629A611A628C
:100A900099619A611A6219629A611A6299619A61FE
:100AA0001A6299619A611A6219629A611A621962EC
:100AB0009A611A629861F0BD180000D0200000D041
:100AC0002DE9F0414FF0504205204FF400454E4BC8
:100AD00084B0196C4FF4007821F4E07141F04001CA
:100AE00019644A494FF4803EC86795635C6A4FF4C5
:100AF000800C24F4E07444F040045C624FF4807491
:100B00004FF480664FF40067486494639C6A24F451
:100B1000E07444F040049C62C864C2F83880C2F8B3
:100B200018805C6C24F4E07444F040045C64C1F808
:100B30008400C2F838E0C2F818E0DC6D24F4E074F8
:100B400044F04004DC65C1F8B400C2F838C0C2F813
:100B500018C0DC6A24F4E07444F04004DC624865A8
:100B600096631C6B24F4E07444F040041C63284B2F
:100B7000C8659763166295610193019B5A1E0192A5
:100B8000002BFAD14FF050424FF40041204B11623C
:100B90000293029B5A1E0292002BFAD14FF0504250
:100BA0004FF400411A4B91610393039B5A1E039229
:100BB000002BFAD14FF050434FF480624FF40061A4
:100BC0004FF400704FF48075124C1D6218621A6267
:100BD00019629A611A6219629A611A6219629A61BB
:100BE0001A6299619A611A6219629A611A621962AB
:100BF0009A611A6219629A611A6299619A611A621B
:100C00009861009408E000BF00800340008002402B
:100C100060E31600C0C62D00009B5A1E0092002BF8
:100C2000FAD14FF050444FF480654FF400664FF412
:100C300000774FF480781946C4F820800846276270
:100C40004FF4A0732562F0222662A5612562266218
:100C5000A5612562A661A5612562A661A5612562DF
:100C60002662A5612562A661A5612562A661A561CE
:100C700025622662A5612562A761C4F818802762F3
:100C800025622662A56125622662A561256226622B
:100C9000A56125622662A56125622662A56125629D
:100CA0002662A56125622662A56125622662A5618C
:100CB0002562A761C4F82080276225622662A561AB
:100CC00025622662A5612562A661A5612562A661ED
:100CD000A5612562A661A56125622662A5612562DE
:100CE000A661A56125622662A5612562A761C4F897
:100CF0001880276225622662A5612562A661A5612A
:100D000025622662A5612562A661A561256226622B
:100D1000A5612562A661A56125622662A56125629D
:100D2000A661A5612562A761C4F8208027622562BB
:100D3000A661A56125622662A5612562A661A561FD
:100D40002562A661A56125622662A56125622662EB
:100D5000A5612562A661A56125622662A56125625D
:100D6000A761C4F81880276225622662A561256202
:100D70002662A56125622662A56125622662A561BB
:100D80002562A661A5612562A661A561256226622C
:100D9000A56125622662A5612562A761C4F8188055
:100DA000276225622662A56125622662A561256209
:100DB0002662A56125622662A5612562A661A561FC
:100DC0002562A661A56125622662A561256226626B
:100DD000A5612562A761C4F8188027622562266292
:100DE000A56125622662A56125622662A56125624C
:100DF0002662A56125622662A56125622662A5613B
:100E000025622662A56125622662A5612562A76129
:100E1000C4F81880276225622662A56125622662D1
:100E2000A5612562A661A5612562A661A56125620D
:100E30002662A56125622662A5612562A661A5617B
:100E40002562A661A5612562A761C4F818802762A2
:100E500025622662A56125622662A5612562A661DA
:100E6000A5612562A661A56125622662A56125624C
:100E70002662A5612562A661A5612562A661A561BC
:100E80002562A761C4F8208027622562A661A5615A
:100E900025622662A5612562A661A5612562A6611B
:100EA000A56125622662A5612562A661A56125620C
:100EB000A661A5612562A661A5612562A761C4F846
:100EC0001880276225622662A56125622662A561D7
:100ED0002562A661A5612562A661A56125622662DB
:100EE000A5612562A661A56125622662A5612562CC
:100EF000A661A5612562A761C4F8208027622562EA
:100F0000A661A56125622662A5612562A661A5612B
:100F10002562A661A5612562A661A561256226629A
:100F2000A5612562A661A5612562A661A56125620C
:100F3000A761C4F81880276225622662A561256230
:100F40002662A5612562A661A56125622662A5616A
:100F50002562A661A56125622662A56125622662D9
:100F6000A56125622662A5612562A761C4F820807B
:100F700027622562A661A5612562A661A561256239
:100F80002662A56125622662A56125622662A561A9
:100F900025622662A56125622662A5612562266218
:100FA000A5612562A761C4F81880276225622662C0
:100FB000A56125622662A5612562A661A5612562FB
:100FC000A661A5612562A661A5612562A661A561EC
:100FD00025622662A56125622662A5612562A76158
:100FE000C4F8208027622562A661A5612562A661FA
:100FF000A56125622662A56125622662A56125623A
:101000002662A56125622662A5612562A661A561A9
:1010100025622662A5612562A761C4F8188027624F
:1010200025622662A56125622662A5612562266287
:10103000A56125622662A56125622662A5612562F9
:101040002662A56125622662A5612562A661A56169
:101050002562A761C4F8208027622562A661A56188
:101060002562A661A56125622662A56125622662C8
:10107000A56125622662A56125622662A5612562B9
:10108000A661A5612562A661A5612562A761C4F874
:101090001880276225622662A56125622662A56105
:1010A00025622662A56125622662A5612562A66188
:1010B000A56125622662A5612562A661A5612562FA
:1010C000A661A5612562A761C4F820802762256218
:1010D000A661A5612562A661A56125622662A5615A
:1010E00025622662A56125622662A5612562A66148
:1010F000A56125622662A56125622662A561256239
:10110000A761C4F81880276225622662A56125625E
:101110002662A5612562A661A56125622662A56198
:1011200025622662A56125622662A5612562266286
:10113000A56125622662A5612562A761C4F82080A9
:1011400027622562A661A5612562A661A561256267
:101150002662A56125622662A56125622662A561D7
:101160002562A661A5612562A661A5612562266248
:10117000A5612562A761C4F81880276225622662EE
:10118000A56125622662A56125622662A5612562A8
:101190002662A5612562A661A5612562A661A56199
:1011A0002562A661A5612562A661A5612562A76188
:1011B000C4F8208027622562A661A5612562A66128
:1011C000A56125622662A5612562A661A5612562E9
:1011D0002662A56125622662A56125622662A56157
:1011E00025622662A5612562A761C4F8188027627E
:1011F0002562A661A56125622662A5612562A661B8
:10120000A56125622662A56125622662A561256227
:10121000A661A56125622662A56125622662A56197
:101220002562A761C4F8188027622562A661A561BE
:1012300025622662A5612562A661A56125622662F6
:10124000A56125622662A56125622662A5612562E7
:101250002662A5612562A661A5612562A761C4F821
:10126000208027622562A661A5612562A661A5612D
:101270002562A661A56125622662A56125622662B6
:10128000A56125622662A56125622662A5612562A7
:101290002662A5612562A761C4F8188027622562CD
:1012A000A661A5612562A661A56125622662A56188
:1012B0002562A661A56125622662A5612562266276
:1012C000A56125622662A56125622662A561256267
:1012D000A761C4F81880276225622662A56125628D
:1012E0002662A56125622662A56125622662A56146
:1012F00025622662A56125622662A56125622662B5
:10130000A5612562A661A5612562A761C4F8188060
:10131000276225622662A56125622662A561256293
:101320002662A56125622662A5612562A661A56186
:1013300025622662A56125622662A5612562266274
:10134000A5612562A761C4F818802762256226621C
:10135000A56125622662A56125622662A5612562D6
:101360002662A5612562A661A5612562A661A561C7
:101370002562A661A5612562A661A5612562A761B6
:10138000C4F81880276225622662A561256226625C
:10139000A56125622662A5612562A661A561256217
:1013A0002662A56125622662A56125622662A56185
:1013B0002562A661A5612562A761C4F8188027622D
:1013C00025622662A56125622662A5612562A66165
:1013D000A56125622662A5612562A661A5612562D7
:1013E0002662A5612562A661A56125622662A561C6
:1013F0002562A761C4F81880276225622662A5616C
:1014000025622662A5612562A661A5612562A661A5
:10141000A56125622662A5612562A661A561256296
:10142000A661A56125622662A5612562A761C4F84F
:101430001880276225622662A5612562A661A561E2
:1014400025622662A5612562A661A56125622662E4
:10145000A5612562A661A56125622662A561256256
:10146000A661A5612562A761C4F81880276225627C
:101470002662A5612562A661A56125622662A56135
:1014800025622662A56125622662A5612562A661A4
:10149000A56125622662A56125622662A561256295
:1014A000A761C4F81880276225622662A5612562BB
:1014B0002662A5612562A661A5612562A661A56176
:1014C0002562A661A56125622662A5612562A661E5
:1014D000A56125622662A5612562A761C4F818800E
:1014E000276225622662A56125622662A5612562C2
:1014F0002662A56125622662A5612562A661A561B5
:1015000025622662A5612562A661A5612562A661A4
:10151000A5612562A761C4F818802762256226624A
:10152000A56125622662A56125622662A561256204
:101530002662A56125622662A5612562A661A56174
:101540002562A661A56125622662A5612562A76163
:10155000C4F81880276225622662A561256226628A
:10156000A56125622662A5612562A661A561256245
:101570002662A56125622662A56125622662A561B3
:101580002562A661A5612562A761C4F8188027625B
:1015900025622662A56125622662A5612562A66193
:1015A000A56125622662A56125622662A561256284
:1015B0002662A56125622662A56125622662A56173
:1015C0002562A761C4F8208027622562A661A56113
:1015D0002562A661A5612562A661A56125622662D4
:1015E000A56125622662A56125622662A561256244
:1015F0002662A5612562A661A5612562A761C4F87E
:10160000188027622562A661A5612562A661A56191
:1016100025622662A5612562A661A5612562266212
:10162000A56125622662A56125622662A561256203
:101630002662A5612562A761C4F818802762256229
:101640002662A56125622662A56125622662A561E2
:1016500025622662A56125622662A5612562266251
:10166000A5612562A661A56125622662A561256244
:10167000A761C4F81880276225622662A5612562E9
:101680002662A56125622662A56125622662A561A2
:1016900025622662A5612562A661A5612562A66113
:1016A000A5612562A661A5612562A761C4F81880BD
:1016B000276225622662A56125622662A5612562F0
:1016C0002662A56125622662A5612562A661A561E3
:1016D00025622662A5612562A661A5612562266252
:1016E000A5612562A761C4F8188027622562266279
:1016F000A56125622662A56125622662A561256233
:101700002662A5612562A661A56125622662A561A2
:101710002562A661A5612562A661A5612562A76112
:10172000C4F81880276225622662A56125622662B8
:10173000A56125622662A5612562A661A561256273
:10174000A661A56125622662A56125622662A56162
:1017500025622662A5612562A761C4F81880276208
:1017600025622662A56125622662A5612562A661C1
:10177000A5612562A661A56125622662A561256233
:10178000A661A56125622662A56125622662A56122
:101790002562A761C4F81880276225622662A561C8
:1017A0002562A661A56125622662A5612562266281
:1017B000A56125622662A56125622662A561256272
:1017C000A661A5612562A661A5612562A761C4F82D
:1017D0001880276225622662A5612562A661A5613F
:1017E00025622662A56125622662A5612562A66141
:1017F000A56125622662A5612562A661A5612562B3
:101800002662A5612562A761C4F818802762256257
:101810002662A56125622662A5612562A661A56191
:1018200025622662A5612562A661A5612562266200
:10183000A5612562A661A5612562A661A5612562F3
:10184000A761C4F81880276225622662A561256217
:101850002662A56125622662A5612562A661A56151
:101860002562A661A56125622662A5612562A66141
:10187000A5612562A661A5612562A761C4F81880EB
:10188000276225622662A56125622662A56125621E
:101890002662A5612562A661A5612562A661A56192
:1018A0002562A661A56125622662A5612562266280
:1018B000A5612562A761C4F81880276225622662A7
:1018C000A56125622662A5612562A661A5612562E2
:1018D0002662A56125622662A56125622662A56150
:1018E0002562A661A56125622662A5612562A761C0
:1018F000C4F81880276225622662A56125622662E7
:10190000A56125622662A5612562A661A5612562A1
:10191000A661A5612562A661A5612562A661A56192
:101920002562A661A5612562A761C4F820802762AF
:1019300025622662A5612562A661A56125622662EF
:10194000A5612562A661A56125622662A561256261
:10195000A661A56125622662A5612562A661A561D1
:101960002562A761C4F8188027622562A661A56177
:1019700025622662A5612562A661A5612562A66130
:10198000A56125622662A56125622662A5612562A0
:101990002662A56125622662A5612562A761C4F859
:1019A0002080276225622662A56125622662A561E4
:1019B0002562A661A56125622662A5612562A661F0
:1019C000A56125622662A56125622662A561256260
:1019D000A661A5612562A761FEF744FC4FF496302D
:1019E00023462A463146C4F81880276201381A6215
:1019F00099619A611A6299619A611A6299619A6110
:101A00001A6299619A611A6299619A611A621962FD
:101A10009A611A6219629A611A6219629A611A626B
:101A20001A6219629A611A6219629A611A621962DB
:101A30009A611A6219629A611A6219629A611A624B
:101A400019629A611A6219629A611A6219629A613C
:101A50001A62CBD14FF400729A6104B0BDE8F081F4
:101A60001D4A30B4136882B043F4107313601368D6
:101A700023F410731360936813F4107FFBD00522D6
:101A80004FF0400C4FF050414FF40050134D144BA9
:101A9000144CC5F838C0DA66886388610194019BEC
:101AA0002BB1019B013B0193019B002BF9D10862F3
:101AB0000194019B2BB1019B013B0193019B002BE6
:101AC000F9D1013AE9D14FF050434FF400529A61F5
:101AD00002B030BC704700BF0000024000800340ED
:101AE0000080024080841E004FF0000300B543ECEC
:101AF000440043EC40004FF0050E4FF4807C0C4B4B
:101B0000C20053F8201003EB800081F0400102F185
:101B1000804303F5203301F0C00200F5805100F549
:101B200040500A60C3F804E0C0F800C000BD00BF28
:101B3000048003400FB400B5084883B002F02AFFC8
:101B4000049B3BB105A91846019102F095FD04489C
:101B500002F020FF012002F0A7FD00BFFC6F001083
:101B6000BC70001070B51646EFF3108472B6DFF843
:101B700048E0DEE8CF2F0123002AFAD1CEE8423F29
:101B8000002AF6D1BFF35F8F012301F0070CCA08CA
:101B900003FA0CF310F802C01CEA030508D14CEA62
:101BA000030C00F802C0CEE88F5F84F3108870BD8C
:101BB0003046FFF7BFFF00BFBF160020F8B50F4645
:101BC0001946EFF3108672B61C4DD5E8CF4F0123AE
:101BD000002CFAD1C5E8443F002CF6D1BFF35F8F4B
:101BE0008A421BD8012402E00132914222D3D30859
:101BF00010F803E002F0070C04FA0CFC1EEA0C0FCC
:101C0000F2D14EEA0C0E00F803E010460023C5E8BE
:101C10008F3F86F31088984207DBF8BD0023C5E8A4
:101C20008F3F86F310884FF0FF30002FF5D00698D5
:101C3000FFF780FF4FF0FF30E8E700BFBF1600203E
:101C4000044A1078431CDBB2182B28BF10231370F2
:101C5000704700BFC412002000B5DFF81CC083B07D
:101C600001461F231822CDF800C00248FFF7A6FF47
:101C700003B000BD041800200C7000104FF0E022EB
:101C8000936843F000539360704700BF0021044BFA
:101C900003F12002C3E88F1F01339342FAD170474A
:101CA000B41600204FF0E0234FF08032C3F8002438
:101CB000C3F80424C3F80824C3F80C24C3F8102480
:101CC000C3F81424C3F81824C3F81C24C3F8202430
:101CD000C3F82424C3F82824C3F82C24C3F83024E0
:101CE00062B67047012300F01F029340400941B1E2
:101CF000800000F1604000F56140C0F88031036071
:101D00007047024A203042F82030704700E100E07E
:101D10000123064A410952F8212000F01F008340A8
:101D2000134214BF01200020704700BF00E100E013
:101D300001224309034900F01F008240403341F86B
:101D40002320704700E100E0054A10309268054BFF
:101D500052F82000C01A47288CBF0020012070478D
:101D600000ED00E0C812002008B5EFF3108E72B647
:101D7000134BD3E8CFCF0122BCF1000FF9D1C3E858
:101D80004C2FBCF1000FF4D1BFF35F8F0D4A103020
:101D90009268DFF834C052F82020624501D09142A9
:101DA0000BD1084A926842F82010BFF35F8F0022DF
:101DB000C3E88F2F8EF3108808BD00F0FDFE00BF32
:101DC000BD16002000ED00E0110100102DE9F84FD4
:101DD0008B461146EFF3108872B6664FD7E8CF2FC7
:101DE0000123002AFAD1C7E8423F002AF6D1BFF307
:101DF0005F8F614B93F90040002CC0F2B88000F176
:101E000010055E4804EB440900EB890296794FEA1D
:101E100089091E705A4B9B6853F82560331A472B6B
:101E200035D826F0010E9EF807308B4209D86FE0B6
:101E30000CEB4C0300EB830393F807A08A4551D9C0
:101E40009E469EF906C0BCF1000FF1DA4BF601592F
:101E50000EF1040A131FA3EB0A03C3F34A036FEA4C
:101E6000C3436FEAD3438EF80640DFF820A104EBAA
:101E7000440400EB8402AEF8043040F824A0A2F839
:101E8000049082F806C0D171C2F808B01DE03D4B45
:101E90009E426CD13C4BD17109F102010144043BDB
:101EA0005B1AC3F34A036FEAC3434FF421416FEA5D
:101EB000D34320F809105380FF214BF60153C2F899
:101EC00008B09171938042F001062D4B9B6843F856
:101ED0002560BFF35F8F0023C7E88F3F88F310882A
:101EE000BDE8F88FF2466FF00703A3EB09033AF859
:101EF000049F1B1A49F30A0909F102090AEB49096F
:101F00009944C9F34A096FEAC9496FEAD949A1E777
:101F10006FF00703D1711C4909F10204044404392C
:101F2000091BA3EB0903C1F34A011B1A6FEAC14164
:101F30007344C3F34A036FEAC3436FEAD1414FF4DA
:101F400021466FEAD3435180104920F809609380FD
:101F50004AF6AA2473461B1A5B415C43240DC2F85F
:101F600008B0947142F00106CEF80010ADE700F021
:101F700023FE00BFBD160020A01C0020C8120020B8
:101F800000ED00E01101001010130020014880470F
:101F90002DE9F041EFF30583DBB29E46EFF31085A8
:101FA00072B62F49D1E8CF2F0123002AFAD1C1E818
:101FB000423F002AF6D1BFF35F8FDFF8B48040F0D4
:101FC0000106D8F808704AF6AA2357F82E7004467E
:101FD000244AA41A644163431B0DB7425BB226D066
:101FE00092F906409C4228D092F912409C422FD090
:101FF00092F91E409C422DD092F92A409C422BD04F
:1020000092F936409C4229D092F942409C4208BF46
:10201000052413D0144A002492F800C0137080F8ED
:1020200006C0C1E88F4F85F31088BDE8F081D8F86D
:1020300008200E4C42F82E40ECE7002404EB440448
:1020400002EB8402FF2494714BF601549480E1E783
:102050000124F3E70224F1E70324EFE70424EDE78A
:10206000BD160020C8120020A01C00201101001085
:1020700000ED00E000B5DFF824C083B00146052381
:102080000022CDF800C00448FFF798FD0028A8BF43
:10209000C0F1330003B000BDA51C00202870001063
:1020A000014B0B4403607047B416002070B5104C10
:1020B000104DAC420ED2FF26236863B1FFF7C0FD7E
:1020C00001462046FFF7ECFFA680BFF35F8F083480
:1020D000AC42F1D370BDFFF7B3FD01462046FFF7D8
:1020E000DFFF2671BFF35F8F0834AC42E4D370BDCD
:1020F000801300208813002010B50446FFF7A0FDD0
:1021000001462046FFF7CCFFFF232371BFF35F8F0B
:1021100010BD00BF10B504460120FFF79DFD034B25
:1021200003442360BFF35F8F10BD00BFB4160020CF
:10213000024B0B440360BFF35F8F7047B41600205F
:1021400010490B68EFF3108072B6D3E8CFCF0122AD
:10215000BCF1000FF9D1C3E84C2FBCF1000FF4D152
:10216000BFF35F8F084A4FF0000C13780968013302
:102170001370C1E88FCF80F3108840BF002000218A
:10218000704700BF7C1C0020A21C00200000000043
:102190002DE9F04F2DED028B85B0EFF30583DBB217
:1021A000103B9A0818BF01224FF0010103F0030B06
:1021B00018BFA94CA94B08BFA94C0BEB820253F8DE
:1021C000225001FA0BF204F541539FEDA18B0292CC
:1021D0005A602FE0AB88190440F19480AB79002B52
:1021E00040F0DE80B5F90860002EC0F21C816B69FA
:1021F00006EB460603EBC603D3E90267B7F1FF3FE0
:1022000008BFB6F1FF3F0ED004EB8B01A36A0A6949
:10221000D21AF31A934205D30123226A03FA0BF36D
:10222000134200D10E61204600F0EEFBB042B941EE
:10223000C0F2F980B5F90860029B002EE363C9DBA8
:10224000D5F8149006EB460A09EBCA07BB6820468E
:10225000D7F80C80019300F0D7FB019B984271EBFB
:102260000801B7DBB8F1000FC0F2C080D7E9043134
:102270007C4A934200F0F8807A88B5F9080092B25F
:1022800042EA0040984702460B4652EA030100F03A
:10229000AD80002B80F2CD800199B1EB020E68EB8E
:1022A000030839F93A30C7E902E8002B92DB686984
:1022B00003EB430200EBC202D2E90271BE4578EBA8
:1022C000010C4FEA430285DBAC462CF8083F06E0E0
:1022D00003EB430100EBC1015A00D1E90271BE4595
:1022E00078EB01011A4405DB30F9323000EBC20C07
:1022F000002BEDDA29F83A30ACF80060AB8819040D
:102300003FF56CAF2B69EFF3108272B6D3E8CF0FB5
:1023100001210028FAD1C3E8401F0028F6D1BFF3FD
:102320005F8F4FF6FF76A8880023296900B2AE8040
:10233000C1E88F3F82F310889842FFF64FAF0746FF
:10234000A1466E6905F10808B5F9083007EB470E9C
:10235000002BC44606EBCE0215DBD2E90240AA46AA
:10236000019704E036F935309446002B09DB03EB86
:10237000430506EBC502D2E90271BC4270EB0101D4
:10238000F0DA5546019FACF8007036F93E7026F839
:102390003E30002FD8DAAB794C46002B3FF422AF09
:1023A0000023AB71B5F90860721C33463BD06869F5
:1023B00005F1080E03E08E465A1C3FF415AF03EBFF
:1023C000430200EBC2014F889C463F0430F9323093
:1023D000F1D5664581ED028BEED0AEF8003029894B
:1023E000664620F83210A5F808C0E5E739F83A301B
:1023F0002B812B69EFF3108272B6D3E8CF0F012146
:102400000028FAD1C3E8401F0028F6D1BFF35F8F40
:102410006B88296929F83A3000236E80C1E88F3F24
:1024200082F31088D6E640BF05B0BDEC028BBDE854
:10243000F08F20460393019200F0E6FA019A039B85
:1024400010EB020E43EB01082BE700BFAFF3008057
:10245000FFFFFFFFFFFFFFFF00800B40541C002029
:1024600000000B409121001008460B69039198472A
:102470000028BBD00399D1E9002306E738B5384BD3
:102480001C692CB1BDE838400A213648FFF708BE68
:102490000321354800F0A6FA334D314BDD60FFF7DC
:1024A000CFFB324A4FF0504E024403202C4B4FF0EA
:1024B0000F0C18701A61DEF800204FF6FF715A7089
:1024C0005A69A3F802C014834FF00204A2F84840EE
:1024D0004FF00404A2F878404FF00504A2F89040B1
:1024E0004FF00604A2F8A8404FF00704A2F8C0403D
:1024F0004FF00904A2F8F0404FF00A04A2F8084196
:102500004FF00B04A2F820414FF00C04A2F8384120
:102510004FF0010414864FF00804A2F8D840144C80
:102520004FF00D0E4FF00E0C9C6008249980A2F81D
:1025300050E1A2F868C1A2F8600011800D4A2C6237
:102540000D49D360FFF710FC01210320FFF7CAFB00
:102550000A4B0A211C640348BDE83840FFF7A0BDC0
:10256000301300207C1C002000000B40B41600201B
:10257000FFFF1000541C00209121001000200B4090
:102580000048704730130020F0B583B09DF8284014
:102590001D46034654B9CDE9000200F03DFA019A08
:1025A000009B824265EB0101A1425BDB1969EFF3FD
:1025B000108072B6D1E8CF6F0124002EFAD1C1E8A5
:1025C000464F002EF6D1BFF35F8FB3F902401F696B
:1025D000002C3EDBD3F814C004EB440E3CF83E1054
:1025E000002659800CEBCE01C7E88F6F80F310886E
:1025F0004888C1E902250130C0F30E00012838BF28
:102600000120089A48800A61099A40EA04404A6118
:102610001A69EFF3108172B6D2E8CF7F0125002F3F
:10262000FAD1C2E8475F002FF6D1BFF35F8F9A88D7
:102630002CF83E201A699C80C2E88F6F81F31088C5
:1026400001211C78DA68A14002F50153596003B0FA
:10265000F0BD0023C7E88F3F80F310884FF0FF30B4
:1026600003B0F0BD204603B0F0BD00BFF0B5164684
:102670001F4602690346EFF3108072B6D2E8CF4FCF
:102680000121002CFAD1C2E8441F002CF6D1BFF37F
:102690005F8FB3F902101D69002945DBD3F814E000
:1026A00001EB41023EF832400EEBC20C5C8000248C
:1026B000C5E88F4F80F3108805983546CCF8100098
:1026C00006983E46CCF81400BCF80200CCE902564D
:1026D0000130C0F30E00012838BF0120ACF8020021
:1026E00040EA0140D3F810C0EFF3108572B6DCE881
:1026F000CF7F0126002FFAD1CCE8476F002FF6D10B
:10270000BFF35F8FB3F804C02EF832C099801A6906
:10271000C2E88F4F85F3108801211C78DA68A14048
:1027200002F501535960F0BD0023C5E88F3F80F3E7
:1027300010884FF0FF30F0BD03464089B0EB214FC9
:102740003ADD58690A1402EB420210B5D3F810C002
:1027500000EBC200EFF3108E72B6DCE8CF4F01221F
:10276000002CFAD1CCE8442F002CF6D1BFF35F8FB8
:10277000428889B292B28A4207D000221B69C3E81C
:102780008F2F8EF31088002010BD6FEA42426FEA4F
:10279000524242800121002218699971C0E88F2FAE
:1027A0008EF3108893F800C0DA68084602F50153EA
:1027B00001FA0CF1596010BD002070474078704755
:1027C0002DE9F04383B0064600F026F94FF47A7302
:1027D00004464FF0FF306FF00042E6FB0341A04299
:1027E00072EB01033ABF044615460D46A61F45F19C
:1027F000FF37B44275EB07033CBF0026374600F0B5
:102800000BF9301A67EB0101012871F1000106DABA
:102810002046294603B0BDE8F04300F007B900F0B8
:10282000FBF8864267EB010100290ADB00211D4B02
:10283000324600931C483B460191FFF717FF0130D9
:10284000E6D04FF0000E194ADFF868C01849536A05
:102850009F4204D8906AB042DAD29F42D8D1DCF8C5
:102860000030EFF3108072B6D3E8CF9F5FF001081D
:10287000B9F1000FF8D1C3E8498FB9F1000FF3D1D6
:10288000BFF35F8F0B785FFA83F8DCF80030C3E8A2
:102890008FEF80F310880878804500D120BF20BFDB
:1028A000D5E700BF412100103013002000000B408D
:1028B000A21C00207C1C0020F0B5024685B0EFF37E
:1028C0000585EDB2002D61D10B46424CD4E90001E3
:1028D000994208BF90424AD0CDE902233E4BDF68BF
:1028E0001E78384600F090F806F1040C57F82CC01A
:1028F000029A039BACEB000C101A63EB01016045DC
:1029000071F1000133DACDE9022300F085F8029A73
:10291000039B824263EB0101002949DB2F492E48CA
:1029200000910195CDE90232FFF7A0FEDDE9023208
:10293000011E3DDD2A48C4E90023446A9C4246D377
:10294000806A904241D32448CDE90232FFF7F4FE79
:102950002349029B486A98421CD314BF01200020DF
:102960008B6A039A934228BF40F001000CE020BF1D
:102970001B49486A98420DD314BF012000208B6A7E
:10298000934228BF40F0010005B0F0BD1448436AEF
:102990008B4202D2002005B0F0BD14BF01230023FA
:1029A000816A914234BF184643F0010005B0F0BD82
:1029B0000B49486A9842EDD3C01A18BF01208B6AB0
:1029C000934228BF40F00100DEE79C42BBD120BF0C
:1029D000B9E700BF28130020301300204121001068
:1029E00000000B4010B4054B054C064AA04214BF32
:1029F0001846581C10BCFFF7B5B800BF08180020D7
:102A000000800B40447000100346416A0A46986AF1
:102A1000596A8A42FAD17047034B596A0A46986A42
:102A2000596A9142FAD1704700000B40074A536A35
:102A30009942FCD8994207D1044B02E05A6A91426C
:102A400002D19A6A9042F9D8704700BF00000B404B
:102A50004FF0804C214B00B5C3F800C0002839D09E
:102A6000DFF888C0A3F54053C3F81CC0DFF880C06E
:102A700040F0010080EA0C0CC3F820C05962986253
:102A80004FF0804E4FF0E061144B1548DFF864C002
:102A9000C3F800E0C0F808C019602AB94FF000423E
:102AA000A3F580531A6000BD4FF47A7303FB02F262
:102AB000B2F1807F2ABF6FF07F4313461A464FF072
:102AC0008041DFF834C00748CCF80030064B426044
:102AD000196000BD034BD861D2E700BF00B00D40C4
:102AE00000A0014000800D4000A00D40D3C007B001
:102AF0002D3FF84FF3FFFF01441C00204FF0000C66
:102B000030B5134683B004460D46BCF816200021AC
:102B100041E800F101934B0254BF1021042144F21B
:102B20005220904786462A460A212046F446019BB9
:102B300003B0BDE8304060470023DB8A002242E852
:102B400000F2520201D4102118470421184700BF97
:102B5000002808B50EDB52B941F020010023DB7CD0
:102B6000022B0AD002464FF48170FFF7C7FF41F0F5
:102B70003001F3E78B06F5D5F0E702464FF491708C
:102B8000FFF7BCFF034AD2F82838002BFBD0BFF375
:102B90005F8F704700000E400021044B044ABFF3D2
:102BA0005F8F43F8041B9342F9D170470C080E4025
:102BB0002C080E40704700BF08B50148FEF7BAFF69
:102BC0006870001038B5054C054DAC4204D254F87D
:102BD000043B9847AC42FAD338BD00BFE86E001002
:102BE000286F00100648DFF828C0064B064A074940
:102BF000C0F800C01A608B6832EA0303FBD170474B
:102C00000020024000300240F6FFF30300000240C3
:102C10007F3BEFEF044BDB6CB3F5004F03D14FF478
:102C20008022024BDA6470470000115000201150DE
:102C30004FF0E022044BD2F8881D0B43C2F8883DC8
:102C400010EE3004704700BF030330006FF06041A6
:102C5000044B054A19609368DB4333F06043FAD1B3
:102C6000704700BF003002400000024010B545F23E
:102C70005320FFF761FFBDE81040034604201847CA
:102C800010B545F25320FFF757FFBDE8104003464B
:102C900001201847FEF7FABF1349144B70B55C1AB0
:102CA000A508442D2A4628BF4422114E92003046E2
:102CB00004F006F9432D13D80E4A0FD0C5F1440095
:102CC0003319410803EBC101C3E9002208338B42E9
:102CD000FAD1C30704D520F00100054446F82520A9
:102CE000054B9E6070BD00BF000000101001001079
:102CF000000000201101001000ED00E086B003B4D8
:102D000051FC0804CDE9020151FC0904CDE904019C
:102D100051EC0A04CDE9060103BCF047BDE80050C0
:102D20004EEC00C4BDE800504EEC01C4BDE80050BC
:102D30004EEC02C400BD000000B5FFF7DFFF02E06B
:102D400010FE30F4F8D441EC100443EC112400EEF2
:102D5000010410EE010480EE200451EC10047047D1
:102D600000B5FFF7CBFF02E010FE30F4F8D441ECE1
:102D7000100443EC112400EE010410EE210480EE57
:102D8000200451EC3004704700B5FFF7B7FF02E0B4
:102D900010FE30F4F8D410B541EC100443EC1124CB
:102DA00051EC040453EC0524A0FB024C5FF0000E30
:102DB000E0FB03CEE1FB02CE4CEC20440024E1FB1F
:102DC00003E444EC30E480EE200451EC500410BDE8
:102DD00000B5FFF793FF02E010FE30F4F8D441ECA9
:102DE000100443EC112451EC2104A0FB01126FEA02
:102DF000820252FB100052FB12F252FB1000A0EBB9
:102E0000D07C53EC04245CFB13F153EC1524A1FBA0
:102E1000022001FB030053EC4424A2EB000050FB12
:102E20001CF24FEA111312EB017043EBE27140EA1E
:102E3000515020EA915020F0070053EC7524A0FB7C
:102E4000023C53EC752400FB03CC01FB02CC53EC99
:102E50000424ACEB824C40EA5C70A0F1010041EC30
:102E6000400480EE200451EC7004704700B5FFF779
:102E700045FF02E010FE30F4F8D440EC700400EEA0
:102E8000010410EE210480EE200451EC3004704760
:102E900000B5FFF733FF02E010FE30F4F8D440EC49
:102EA000600400EE010410EE210480EE200451ECD9
:102EB0003004704700B5FFF721FF02E010FE30F448
:102EC000F8D441EC800400EE010410EE010480EE21
:102ED000400410EE1304704700B5FFF70FFF02E047
:102EE00010FE30F4F8D441EC800400EE010410EE42
:102EF000010480EE400410EE3304704700B5FFF784
:102F0000FDFE02E010FE30F4F8D441EC100443EC76
:102F1000112400EE010410EE3004C0F3007070477D
:102F200000B5FFF7EBFE02E010FE30F4F8D443ECFE
:102F3000102441EC110400EE010410EE30F48CBFBB
:102F400001200020704700BF00B5FFF7D7FE02E068
:102F500010FE30F4F8D443EC102441EC110400EEE0
:102F6000010410EE30F42CBF01200020704700BF98
:102F700000B5FFF7C3FE02E010FE30F4F8D441ECD8
:102F8000100443EC112400EE010410EE30F42CBFC9
:102F900001200020704700BF00B5FFF7AFFE02E040
:102FA00010FE30F4F8D441EC100443EC112400EE90
:102FB000010410EE30F48CBF01200020704700BFE8
:102FC000704700BF2DE9F04F83B00F461146DDE991
:102FD0000EB292079846DDE90C93064629D00D46BD
:102FE0009BB109EB030405EB040A01950D460D9313
:102FF000AAEB040214F8010D43463946B047A14537
:10300000F6D129460D9B019D1D440F9B9B070CD5B6
:103010006C1AA34509D92A46434639462020013473
:10302000B0475C4505F10105F5D3284603B0BDE87E
:10303000F08F5B4515D28A461C468946ABEB0305EB
:103040000D4452464346394620200AF1010AB04752
:10305000AA45F6D149462346DDF83090002CC0D170
:10306000E3E70D46002BBCD1DFE700BF2DE9F04FB1
:103070000F460F9906469DF82C008D079046DDE916
:103080000CA299468346099CDDF828C00E9B49D4C2
:10309000002B42D1944545D201F0010504F1FF3ED9
:1030A0003020E64405E00CF1010C62450EF8010FFA
:1030B00002D9BCF1200FF6D1002D00F087806345C6
:1030C00030D9601E4FF0300E604405E00CF1010C69
:1030D0009C4500F801EF25D0BCF1200FF6D1CD06BC
:1030E0000ED5480551D4624564D0634562D0BAF12B
:1030F000100F4DD0BAF1020F55D0BCF1200F2DD1D9
:103100002022CDE90B310A924B46424639463046E1
:103110000994BDE8F04FFFF755BF11F001052ED11E
:103120009445BBD3CD061ED54805E0D4BCF1000FB5
:10313000D9D1BAF1100F5FD0BAF1020F74D030229A
:103140004FF0010C2270BBF1000F12D1480742D59D
:103150002B2204F80C200CF10102D2E762460CF19C
:10316000010C3020A054BCF1200FC9D0BBF1000FDE
:10317000ECD02D2204F80C200CF10102C1E798B329
:10318000944503F1FF3389D399E7BAF1100FB7D112
:103190008D063DD5BCF1200FB2D0582204F80C208A
:1031A0000CF1010CA9E7BCF1200FA9D062460CF18B
:1031B000010C08E0BCF10102BBD0BAF1100F35D010
:1031C000BAF1020FCDD16220A05496E7CD06CAD540
:1031D000480588D58BE70A0749BF2022624604F8D4
:1031E0000C200CF101028CE711F00C0F00D0013B18
:1031F0009445FFF453AF62E78A0613D47822227015
:1032000030224FF0020C6270BBF1000F9ED0B0E78D
:10321000BCF1200F3FF474AF782204F80C200CF1BD
:10322000010C6AE75822EAE76222E8E78D06ACF172
:10323000020004D54FF0580E04F800E091E74FF07B
:10324000780E04F800E08CE700B9704701F060BB2D
:1032500010B1D1E900311847704700BF00000000ED
:103260002DE9F04F97B09DED207BDDE9225B804694
:10327000894651EC170B9A46249B0C920793024601
:103280000B468DED047BFFF73DFE002840F0E38107
:10329000DDE904014FF0FF326FF48013FFF744FEC5
:1032A000002840F0CB80DDE904014FF0FF32B24B43
:1032B000FFF776FE002840F09F80DDE90467AAA3AF
:1032C000D3E9002330463946FFF76AFE002840F074
:1032D0008280A7A3D3E9002330463946FFF724FEB6
:1032E000002878D13046394600220023FFF71CFE23
:1032F000002840F098800D90079B302113F4806FD8
:1033000008BF06250EAA2B46A5F1200605E0013BC5
:10331000B34202F8011B00F06581092BF7D81E4665
:10332000ED1ADDE90401FFF7C9FD944B044603EBF8
:10333000C60393ED007B8DED087BFFF79BFD0246F6
:103340000B46DDE90401FFF70FFDDDE90823FFF778
:103350001FFDCDE90A01FFF7C3FD0746FFF79CFDFE
:1033600002460B46DDE90A01FFF7FEFC0022844B12
:10337000CDE90A01FFF714FE002800F0888001372C
:103380003846FFF789FD02460B46DDE90801FFF7E5
:10339000DFFD08B100270134002E00F088800DF118
:1033A0003703DFF8F0C158190DE0ACFB0721C9085D
:1033B00001EB8102A7EB42023032092F00F8012F06
:1033C00040F2FB800F46202D06F1FF3605F1010586
:1033D000EBD1202586E0079B9DED047BCDE923B34F
:1033E0004946534640460C9A8DED207B229517B0F6
:1033F000BDE8F04F00F080B9079B494658074CBF25
:1034000004230323404621935346079A48BF5D4C4B
:10341000CDE922B258BF5C4C0C9A209417B0BDE89D
:10342000F04FFFF7CFBD3B46324600200021FFF7AB
:103430009BFC0123CDE904010D935DE7079B03F09D
:1034400002029C07049200F0F4800C9F3D464F4E10
:10345000341D14F8010D2A4653464946C047A6427A
:1034600005F10105F5D1049B3C1D63B10C9D631B67
:103470009B4508D922465346494620200134C0477F
:10348000631B9B45F6D8204617B0BDE8F08F00229D
:10349000DDE90A013A4BFFF747FD00287FF47CAFD6
:1034A000002F40F0C2800137002E7FF478AF204615
:1034B000FFF7E0FC02460B46DDE90401FFF754FC90
:1034C00000222F4B06460F46FFF72EFD40B930462F
:1034D000394600222A4BFFF763FD002800F0A18047
:1034E0000DF137032A4859190EE080FB0476C2EB30
:1034F000A60202EB8206A4EB4606303614460135DE
:1035000001F8016F002A47D0202D4FEAE472ECD178
:10351000079A02F00302012A14D1BBF1000F11D067
:103520000D9A002A60D00BF1FF3BBBF1200F09D9A7
:1035300030222B4404E001355D4503F8012F31D2E0
:10354000202DF8D1079B0EACCDE902B30094534671
:10355000494640460C9A0195FFF734FD0446204643
:1035600017B0BDE8F08F00BF0000000065CDCD4171
:103570000000000065CDCDC1FFFFEF7FC0710010DE
:103580000000E03FB8700010C0700010C87000105C
:1035900067666666CDCCCCCC079A02F00302012A9E
:1035A00000F09680202DCDD00D9B3BB32D220DEB4E
:1035B000050383F838200135C4E7202D3FF409AF17
:1035C00030212E445A1905E00135202D02F8011F43
:1035D0003FF4FFAEAE42F7D12E226E44013586F89D
:1035E00038207FE720259CE6079A12F00C0F5AD06E
:1035F0000BF1FF3BAB459BD8202DA3D0079B5A076F
:1036000006D52B220DEB050383F83820013599E709
:103610001B0797D520220DEB050383F838200135D1
:1036200090E7013424F001045AE7F9077FF5B4AEBE
:1036300039E7BBF1040F7FF608AF0C9B1D46043B36
:1036400003EB0B072A465346494620200135C04765
:10365000AF42F7D1FAE6079B03F002029D070492FE
:1036600025D00C9F3D46224EF41C14F8010D2A462D
:1036700053464946C047A64205F10105F5D1049BD2
:10368000FC1C002B3FF4FFAE0C9D631B9B457FF69B
:10369000FAAE22465346494620200134C047631BF8
:1036A0009B45F6D8EFE6AB453FF642AF4AE7BBF1A4
:1036B000030FD6D90C9B1D46033B03EB0B072A4691
:1036C0005346494620200135C047BD42F7D1C9E7DE
:1036D000BBF1000F3FF466AF0D9A002A84D00BF1C6
:1036E000FF3B5D45FFF424AF202D7FF45FAF29E75A
:1036F000C4700010000000002DE9F04F9FB01E467E
:10370000DDE928ABDDE92B982A9B04460D460B9298
:103710000A9352465B4650465946FFF7F3FB002892
:1037200040F0C680504659464FF0FF327B4BFFF7C2
:1037300037FC002840F0BC80504659464FF0FF321D
:103740006FF48013FFF7F0FB002840F0B180504683
:10375000594600220023FFF7E7FB002840F0DD81F7
:10376000CDE908ABDDE9081218F480600B460F467E
:1037700008F400610C921491159040F0A880134356
:1037800040F0D080002940F0EC8106230A9318F025
:103790000202109240F0DD814B46042B38BF042317
:1037A0000E920422043B1292149350465946002272
:1037B0000023FFF7B9FB002840F02A829DED087B2B
:1037C000149B0B9A03930A9B8DED007B029328F4C4
:1037D00000630493294633462046FFF741FD024625
:1037E00018F0200F334629460CBF6520452002F112
:1037F0000108A047129B0DF1580A03F1FF3B0E9BF5
:10380000002283EAE37C5046DFF814E10B9FACEB27
:10381000E37CD90FCDF8208002E0202AC44610D0E6
:10382000AEFB0C384FEAD80808EB8803ACEB430337
:1038300001303033BCF1090F02F1010200F8013C04
:10384000EBD805234FF0000C06930A23DDF8208007
:10385000CDE90121CDE9033CCDF800A03346424635
:1038600029462046CDF814B0FFF700FC109B824695
:10387000D3B1A0EB0708C14516D907EB08023346C0
:103880002946202008F10108A047C145F5D87B1E34
:103890004B44C7F10102A3EB0A035244914538BFE0
:1038A00000230AF1010A9A4450461FB0BDE8F08F88
:1038B000334629462046CDE928AB0A9CCDE92B9812
:1038C0000B9A2A941FB0BDE8F04FFFF7C9BC57EA26
:1038D000020329D100293FF45AAF00230E930A9B1B
:1038E0000E9A934200F3BA810027504659460022AF
:1038F0000023FFF719FB002840F015819DED087BA0
:1039000028F4006343F480632C938DED287B3346C9
:1039100029462046CDE92A790B9AD3E7FFFFEF7FAE
:10392000CDCCCCCC06230A930C9BC3F30A50A0F257
:10393000FF30FFF79FFAB2A3D3E90023FFF728FA7D
:10394000B1A3D3E90023FFF7FBF90C9BCDE90E01EE
:10395000C3F3130343F07F5138460022A24B41F4D6
:103960004011FFF701FA94A3D3E90023FFF710FAFF
:1039700002460B46DDE90E01FFF7E2F9FFF79EFA7A
:103980000E90FFF777FA8EA3D3E90023CDE90C015F
:10399000FFF7FEF90022954BFFF7D2F9FFF78EFAF9
:1039A00089A3D3E900230746DDE90C01FFF7F0F90D
:1039B000CDE90C013846FFF75DFA85A3D3E9002372
:1039C000FFF7E6F902460B46DDE90C01FFF7CCF9FB
:1039D00002460B46CDE90C23FFF7DAF9CDE91001D9
:1039E000DDE90C0102460B46FFF7AAF90022CDE9FA
:1039F0001201DDE910017E4BFFF7EEF900227D4B4D
:103A0000FFF79EF902460B46DDE91001FFF7E4F9E6
:103A10000022794BFFF794F902460B46DDE91001CD
:103A2000FFF7DAF9CDE91001DDE90C2300204FF0B2
:103A30008041FFF799F902460B46DDE91001FFF7D7
:103A40007FF902460B46DDE91201FFF7C5F90022B6
:103A50006A4BFFF775F907F2FF3C00224FEA0C535F
:103A6000FFF796F902460B46DDE90801CDE90C2384
:103A7000FFF75AFA50B1DDE90C010E9B0022013B21
:103A80000E935C4BFFF7A8F9CDE90C01DDE90C01C1
:103A90000E9B02466333C62B08F002031093149B5F
:103AA0002DD8002B5FD0042312930A433FF417AFA5
:103AB000DDE9080148A3D3E90023FFF75DFA48B127
:103AC000DDE9080146A3D3E90023FFF72DFA00281A
:103AD0007FF405AF0A9B002B51D0159A002A00F005
:103AE000AC80013B0A93129B994505D9109B002B92
:103AF00000F0AF80022310930023149344E02BBB0B
:103B0000B9F1050F4FD908F00203002B49D1052365
:103B10001293A9F1050314933AE00BF10043CDF899
:103B200020A009931EE628F4006343F48063204636
:103B3000CDE92A792C933346DDE9086734462946D6
:103B400007F10045CDE928450B9ABBE60523129302
:103B5000ABE70222002310920422149312920E93D8
:103B600023E60527C1E6B9F1040F1FD9109B002BEE
:103B700077D104231293A9F10403149304E0129B58
:103B800099455FD80A9B14930E9B002B3FF40DAE12
:103B9000DDE90801DDE90C23FFF71EF9CDE9080195
:103BA00003E60223109305231293F1E704231293F3
:103BB000EAE700BFAFF3008061436F63A787D23F9E
:103BC00071A379094F930A401655B5BBB16B0240FA
:103BD000EF39FAFE422EE63F2D431CEBE2361A3F48
:103BE0000000000080842E410000F83F0000E03F0C
:103BF00000002C4000002440000018400000F03F6E
:103C0000FB799F501344D33FB3C8608B288AC63FCB
:103C1000149BDDE908A703930A9B07F1004B02936D
:103C200028F400630B9A0493294633462046CDE9D5
:103C300000ABFFF715FB0246D2E5129B994515D85C
:103C40001492A1E7109B23B10A9B149302231093B3
:103C50009AE7129BA9EB0303149395E79B1A5F1E47
:103C600043E604231293022310938DE7109B002B4D
:103C7000EFD002231492109386E700BF2DE9F04F96
:103C800091469A4C9A4AB1F1000A9BB018BF8346FC
:103C900014601878974ADDF8908008BF9346002892
:103CA00000F08A821D460026CDF8209008E03246BA
:103CB0005146089BD84701362878002800F0C78075
:103CC000252805F10105F2D100222B4613F8011B2E
:103CD000A1F1200010280AD8DFE800F03F09093BD5
:103CE0000909090909090937093309092F00A1F14F
:103CF0003000092840F289802A2900F0E980002458
:103D00002E2900F094800027A1F1680012282CD8F9
:103D1000DFE810F04E012B0049012B0040012B0081
:103D20002B002B002B002B002B002B0027002B003F
:103D30002B002B002B002B0027001D4642F0010218
:103D4000C3E71D4642F00202BFE71D4642F00402EF
:103D5000BBE71D4642F01002B7E71D4642F00802DD
:103D6000B3E7697842F48072013367291D467ED833
:103D7000242940F2B880A1F12503422B00F2B38040
:103D8000DFE813F05101B100B100B100B100B100A2
:103D9000B100B100B100B100B100B100B100B1009B
:103DA000B100B100B100B100B100B100B100B1008B
:103DB000B100B100B100B100B100B100B100B1007B
:103DC000B100B1001E013A011E01B100B100B10005
:103DD000B100B100B100B100B100B100B100B1005B
:103DE000B100B100B100B100B100B401B100B10047
:103DF000B100B100B100B100B100B100B100B40137
:103E00005801B4011E013A011E01002404EB840490
:103E100001EB440419781D46A1F130000928A4F1F2
:103E2000300403F10103F1D92E297FF46CAF6978D6
:103E30001846A1F13007092F42F4806240F2258133
:103E40002A2900F032811D46002701335CE7344601
:103E5000DDF82090B14501D809F1FF364B463246D6
:103E600051460020D84720461BB0BDE8F08FA1F195
:103E70006903DBB20F2B36D8012049F2410C984080
:103E800010EA0C0040F0F4800A2B35D0072B2AD121
:103E900058F8041B002940F0108122F0100412F49D
:103EA000806144F0210400F00A8112AA08230593DE
:103EB0001023CDE900203246069404970393002393
:103EC000029351465846089BFFF7D0F80646F3E6A2
:103ED00058F8044B6978002C1D46BCBF42F0020222
:103EE000644201330CE70846E1E600BF7D3C001068
:103EF000401C0020C12F001058F8049B002F99F897
:103F0000000014BF3B464FF0FF33002800F08283CF
:103F1000494603EB090C04E011F8013F002B00F0C7
:103F200043818C45F8D1ACEB0901530540F1208168
:103F3000B94228BF394612F0020300F083820223FF
:103F4000CDE9094832468846089C37440B9307E080
:103F500023465146D84719F8010F013610B13246B1
:103F6000B742F5D10B9B4146099CDDF82880002B18
:103F70003FF4A2AE37468C427FF69EAE2644089CA4
:103F8000761A3A462346514620200137D847B74291
:103F9000F7D191E669786C297FF4E4AEA97842F410
:103FA0004072EB1CE1E6697842F400720133DCE612
:103FB0006978682900F0FB8042F080020133D4E682
:103FC000672900F0C980472900F0CD80452900F01D
:103FD000CC80CDE9034208F10708029728F00708D2
:103FE0003246F8E802675146CDE900675846089B1B
:103FF000FFF782FB06465FE6462908BF42F0200233
:10400000CDE9034208F10708029728F00708324675
:10401000F8E802675146CDE900675846089BFFF76C
:104020001FF9064648E6324651462520089BD847E8
:10403000013641E608F104039207099306F10107EE
:1040400040F1C3803246514698F80000089BD8479B
:10405000012C40F2B4812644089C3A46234651463E
:1040600020200137D847B742F7D1DDF8248023E676
:104070006F2974D040F24182782900F086814FF098
:104080000A0922F010024B4638E0002707EB8707A9
:1040900001EB4701A1F1300710F8011FA1F1300336
:1040A000092BF3D90546431C2EE658F8047BA97862
:1040B00002356B1C27EAE77726E642F0210412AAB4
:1040C000944602E020283FF4F1AE01F00F03092BE3
:1040D00094BF303337330F298CF8003000F10100E2
:1040E0000CF1010C4FEA1111ECD8DFE6582966D02B
:1040F000622940F089804FF002094B4612F4806C2F
:1041000000F0D48022F00D02099212F4007140F008
:104110007B8112F4807008F1040940F03882510666
:1041200040F13A8198F80010002940F04A81099A3C
:1041300022F010020992BCF1000F00F04281084603
:1041400012AA0999CDE90337CDE905410190002371
:10415000009202933246A1E042F4006239E74FF048
:1041600008094B46CAE742F4006242F0200230E7F9
:1041700012F0020300F08C810223CDE909481F46AA
:104180008846089C324623465146D84719F8010F05
:1041900001360028F6D13B464146099CDDF82880CF
:1041A000002B3FF489ADE5E6A1EB0901BDE6A97856
:1041B00042F0C002EB1CD8E5044606464AE64FF042
:1041C000100942F020024B4698E7012C40F2F180A2
:1041D000374606F1FF39CDF82880DDF82080A1446C
:1041E0003A464346514620200137D8474F45F7D13C
:1041F000DDF828803A4698F800005146089BD847D9
:104200002644DDF8248057E512F4806300F0C18075
:104210004FF4806322F0110010F4007E4AD110F4B4
:10422000807C08F1040940F03781410600F1A98043
:10423000020640F1E381B8F9002082EAE271A1EBC5
:10424000E2711FFA81FED10F0991002A00F05F810F
:10425000734612AA9646DFF8A0830A9403E0BCF1E5
:10426000200F23460FD0A8FB0314E40804EB8401BD
:10427000A3EB41010EF1010E3031092B0CF1010CC1
:104280000EF8011CEBD80A9C099B0092CDE901C3F2
:104290000A233246CDE90540049703935146584618
:1042A000089BFEF7E3FEC846064605E522F00C0231
:1042B00009922AE708F1070828F00708D8F804202F
:1042C00058F808CBD10F5CEA020E6CD0002A634686
:1042D00002DA5B4262EB42029146099312AA9446CB
:1042E0004FF0000ECDE90A18CDE90C470E960F925B
:1042F00003E0BEF1200F3B4630D04FF0CC3213EB41
:104300000901BD4F41F10001A7FB014626F003045E
:1043100004EB9604091B5C1A02FB04F63A4669F1A9
:10432000000802FB08660522A4FB077407F00108D9
:104330002644A8FB024864180A2B0CF1010C4FEA32
:10434000570704F1300479F100090EF1010E0CF861
:10435000014C47EAC6774FEA5609CAD27346DDE9EF
:104360000A18DDE90C470E9E0F9ACDF824E0CDE93E
:1043700001310A230092CDE90540324604970393A8
:104380009FE598F8002096465DE74FF010094B46F0
:10439000B4E622F010003FE711064CBFB8F8001059
:1043A000D8F80010C0E6002B40F0428199460993EE
:1043B00094E73246514698F80000089BD8473E469D
:1043C00053E6099A0A9412F0200F14BF4FF04108E7
:1043D0004FF0610812AA9446A8F10A0802E02028CA
:1043E00071460FD0B1FBF3FE03FB1E14092C94BFE2
:1043F0003034444499428CF8004000F101000CF143
:10440000010CECD20A9C9CE608F1070828F007088A
:10441000D8F8042058F8081B0A920A438E467BD12C
:10442000099A22F010020992BCF1000F74D000200A
:1044300012AA0999CDE90020CDE905413246CDE91E
:1044400003373CE58C4298BF01317FF679AD4FF4DC
:104450008063CDE909949946A2190B97089F541AD5
:1044600032463B46514620200136D847A642F7D176
:10447000DDE90A474B46DDF8249099F80000002852
:104480003FF41AAC611C002B3FF477AE002357E5D4
:104490008C42DED8013170E6D8F80020D10F002A16
:1044A00000F0B38082EAE273A3EBE27312AA9446AF
:1044B000CDE90914DFF8408103E0BEF1200F234667
:1044C0000FD0A8FB0314E40804EB8401A3EB410123
:1044D0000CF1010C3031092B0EF1010E0CF8011C0E
:1044E000EBD8DDE909140A230092CDE905403246F4
:1044F000CDE901E104970393D0E6692922F0100089
:1045000040F0918012F480633FF486AE80E6002B89
:104510003FF49FAE12AAB7E6099ACDE90B8412F0D8
:10452000200F14BF41216121CDE90D76CDE90F3B6C
:10453000CDF844A00027F0460A9C12AE0DF1480BBE
:10454000A1F10A0A03E0202F80460C4613D0214631
:104550004A460023404602F0A3FCD2B2092A94BF87
:1045600030325244C84574F10004327007F101073B
:1045700006F10106E7D23846DDE90B845A460E9E65
:104580000D9F0F9BDDF844A0DDF840B051E7D8F84F
:1045900000E0BEF1000F0DD122F010020992BCF133
:1045A000000F07D012AA0998CDE90337CDE90540DD
:1045B0000191CCE5099A12F0200F14BF412061202F
:1045C00012AA94460A92A0F10A0202E02029C646E5
:1045D0000FD0BEFBF3F803FB18E0092894BF30307E
:1045E00080189E458CF8000001F101010CF1010CCE
:1045F000ECD20A9AD7E700BFCDCCCCCCD8F80020BB
:1046000082EAE27EAEEBE27E1DE6002B3FF44EAF87
:1046100012AA68E712F480610ED012F0020114D0E1
:1046200001463746A7E44FF00A0902464B4665E5C6
:10463000002312AA09939AE612F002037FF49AACBF
:10464000002C7FF406AFFFF737BB002C7FF4FFAEE2
:10465000FFF732BB8C4610B584B00093029013462E
:1046600002A94FF0FF320348CDF80CC0FFF706FB5C
:1046700004B010BD5132001010B5094A84B014685E
:104680004CB1034600914FF0FF3203A90548A04703
:10469000012004B010BD00F07DF9204604B010BD2B
:1046A000401C00204932001000BEFDE7704700BFEB
:1046B00008B5FFF7F9FF00BF38B5064C064DFEF709
:1046C00081FAAC4204D254F8043B9847AC42FAD386
:1046D00038BD00BF286F00102C6F0010036808461B
:1046E0001146184770B505460846697D82B0002915
:1046F0004FD0002A25DD037814460A2B064622D027
:10470000012C4FF0000E0DD03246012312F801CFDC
:104710001946BCF10A0F03F1010320D09C42F5D1E8
:10472000744505DD2B68A4EB0E0106EB0E009847DF
:10473000311911F8013CA3F10D03B3FA83F35B09BE
:104740002B7502B070BD2B7D002BD9D102212B68B7
:1047500013489847012CEBD04FF0010ED4E712F824
:10476000010C0D28DAD08E4506EB0E00A1EB0E01F0
:1047700005DACDE900322B689847DDE90032CDE952
:10478000003202212B6806489847009B019A9E46FA
:10479000C4E711462B6802B0BDE87040184700BF5F
:1047A000107200100B685A1C802A0B440A601871A2
:1047B00000D0704730B50E4B0C46186883B0A0B1DE
:1047C0000D1D01E0006980B10368002BFAD0094B90
:1047D0001B680BB18342F5D1294622680190FFF78F
:1047E00081FF019800690028EED1206003B030BD40
:1047F000341800203C1800202DE9F04782B0904684
:104800001C460D460746FEF707F94FF0FF3C6FF0D8
:1048100000462E4A821841F10003944576EB0301CD
:104820003CBF624633462A4802F046FB6B1C824678
:1048300040D00CB3274E284B1C68B4B1B8F1000F20
:104840001CD1DFF89C8001E0246974B12368002B3F
:10485000FAD0D8F800300BB19C42F5D120462A4658
:104860003946B0472469002CF0D1BAF1000F26D1A7
:10487000284602B0BDE8F087184EDCE74FF00A0981
:10488000DFF85C8002E02469002CEED02368002B66
:10489000F9D0D8F800300BB1A342F4D12A463946FA
:1048A0002046B047012220460DF107018DF8079000
:1048B000B047E8E7384602F0B7FA0546B9E70448DA
:1048C00002F0F2FA284602B0BDE8F08740420F003D
:1048D00080130020E546001034180020DD4600104B
:1048E0003C180020084A136823B90AE003F11002BB
:1048F0001B6933B18342F9D129B918691060196174
:10490000704701B1106070473418002000F070BA91
:10491000F0B583B006468DF80700FEF77DF84FF03E
:10492000FF356FF00044174A821841F100039542A9
:1049300074EB03013CBF23462A46134802F0BCFA3D
:10494000124B07461C689CB1114D01E024697CB1F3
:104950002368002BFAD02B680BB19C42F6D120467D
:1049600001220DF10701FFF7BDFE2469002CEFD1F4
:1049700017B9304603B0F0BD034802F095FA30464F
:1049800003B0F0BD40420F00801300203418002017
:104990003C18002038B5044602F046FA01230546CB
:1049A0001A4620462946FFF727FF084B1C682CB102
:1049B00063682BB198472469002CF9D1284638BD8B
:1049C0002469002CF4D1284638BD00BF34180020DB
:1049D0002DE9F041A2B00E460546FEF71DF84FF056
:1049E000FF3C6FF00044254A821841F100039445D2
:1049F00074EB03013CBF23466246214802F05CFA97
:104A00000024334607462A461E4801A90194FFF7B1
:104A100021FE1D4E019B80463468BBB1002C2AD07C
:104A20001A4D01E0246974B12368002BFAD02B6879
:104A30000BB1A342F6D12046019A02A9FFF752FE1C
:104A40002469002CF0D12346346801932CB16368AB
:104A500043B198472469002CF9D12FB9404622B0C0
:104A6000BDE8F0812469F1E7054802F01DFA4046EF
:104A700022B0BDE8F0810194EFE700BF40420F0093
:104A800080130020A5470010341800203C18002097
:104A90000FB400B583B004A951F8040B0191FFF7DE
:104AA00097FF03B05DF804EB04B07047024A034B74
:104AB00010601960704700BFFC170020001800202C
:104AC000184B70B51A68002A28D0EFF3108172B61F
:104AD000D2E8CF4F0120002CFAD1C2E8440F002CBD
:104AE000F6D1BFF35F8F00220F4C18685960227017
:104AF000C0E88F2F81F31088002400250B4E3078FA
:104B0000FDF706F920B9002400252046294670BD8E
:104B10003078FDF70DF92046294670BD4FF47A74C0
:104B20000025EBE74C1C0020A41C0020A31C002047
:104B3000014B1878FDF7FCB8A31C002038B50446DB
:104B400000200D4601F0A6FBA8B3002001F0B8FB41
:104B500088B3FDF761FF4FF0FF3E6FF0004C174A3E
:104B6000821841F1000396457CEB03013CBF72467D
:104B70006346134802F0A0F9E8B1002001F08AFB77
:104B800058B901464FF0FF3000F08EFD6FF002047F
:104B90000B4802F089F9204638BD002001F090FB57
:104BA0000028EED021462A46002001F093FB04465F
:104BB0000028EDD1EAE76FF00204ECE740420F0075
:104BC000801C002008B5FDF727FF4FF0FF3E6FF077
:104BD000004C0F4A821841F1000396457CEB03011B
:104BE0003CBF724663460B4802F066F970B14FF065
:104BF000FF30002100F058FD002001F0B1FB00283B
:104C0000F5D1BDE80840034802F04EB908BD00BF29
:104C100040420F00801C00202DE9F04107460E465F
:104C2000FDF7FAFE4FF0FF356FF00044324A82186C
:104C300041F10003954274EB03013CBF2A46234631
:104C40002E4802F039F908B9BDE8F081002001F0E2
:104C500021FB002845D0002E3EDD0025DFF8A48092
:104C600012E02246002001F0C5FB002105444FF070
:104C7000FF3000F019FD002001F072FBFDF7CCFEC3
:104C8000C8E90001AE4227DD002001F0D1FB741B12
:104C90008442A8BF04467919002CE2D121464FF086
:104CA000FF3000F001FD204601F05AFB204601F0E4
:104CB000F1FA88B1204601F0BBFB0028E2D1FDF7F4
:104CC000ABFE0F4AD8F800309B18D8F8042042F108
:104CD000000283428A41D5D20848BDE8F04102F083
:104CE000E3B80020BDE8F0410021064BC3E9000114
:104CF000024802F0D9B800BF40420F00801C0020DB
:104D000020A10700D015002010B5002184B0324842
:104D100002F0CEF828BB314B1A6802B3EFF31081D2
:104D200072B6D2E8CFEF5FF0010CBEF1000FF8D100
:104D3000C2E84ECFBEF1000FF3D1BFF35F8FDFF8B3
:104D4000A8C0D3F800E09CF800205960D3B201223B
:104D50008CF80020CEE88F0F81F31088CBB104B01F
:104D600010BD00214FF0FF3000F09EFC002001F04C
:104D7000A7FA0446184802F097F8002CEFD0184B19
:104D80001B68002BEBD0174A106804B0BDE8104038
:104D90001847FDF7F5FB0446FDF73EFE4FF0FF3EDA
:104DA0006FF0004C10F57A7241F1000396457CEBF0
:104DB000030138BF63464FF000014FF0010C38BFCC
:104DC0007246DFF828E02046CDE9011CCDF800E06E
:104DD000FDF7DAFB04B010BD801C00204C1C002045
:104DE000FC17002000180020A41C0020C14A00105D
:104DF0004FF0504330B585B01C68FDF7C1FBFDF79F
:104E0000DDFCA04202D0002005B030BD00212C4BBB
:104E100008461B7801F0DCFC2A480368002B4BD0C5
:104E20000120FDF727F90346274C2849C0B223701B
:104E3000FCF79AFF20780121FCF754FF0E20FCF7C5
:104E400083FF60BB224B6FF00044C3E90000FDF715
:104E500097FB0546FDF7E0FD4FF0FF3C10F57A7239
:104E600041F10003944574EB030138BF23464FF032
:104E700000014FF0010438BF6246DFF860C02846E9
:104E8000CDE90114CDF800C0FDF77EFB0028BADBA8
:104E900001211048FFF726FD012005B030BD01209B
:104EA000FCF7DAFE01460A48FDF742F900220E201F
:104EB0000949FCF78BFFEBE7FDF71EF9B0E700BFF0
:104EC000D0730010801C0020A31C0020094D00108E
:104ED0004C1C002048130020314B0010C14A001028
:104EE000004870478C7200100048704738720010FC
:104EF00000B51C4A0346117883B031B363B940F260
:104F000009424FF44173DFF860C0ACF80220164844
:104F1000ACF8003003B000BD052B20D8134ADFF8F1
:104F200048C052F8231060460023013903E0132BD8
:104F300020F8022F10D011F8012F0133DBB2002A24
:104F4000F5D15B0043F44073E1E701901121104675
:104F500000F024F8019BD1E74FF44A73D7E7002013
:104F6000D8E700BF8C1C00200C1800202072001015
:104F700000B545F247308BB0FDF7DEFD0122034658
:104F8000092101A89847DDE90332034912BA1BBA87
:104F9000C1E900230BB000BD741C0020012900F002
:104FA000BB80614A013913784FEA231CBCF1090F19
:104FB000CCBF0CF1370C0CF1300C012980F800C08B
:104FC00000F0AD8003F00F03092B8CBF3733303373
:104FD0000229437000F0A38053784FEA231CBCF1F0
:104FE000090FCCBF0CF1370C0CF1300C032980F801
:104FF00002C000F0948003F00F03092B8CBF3733FD
:1050000030330429C37000F08A8093784FEA231C60
:10501000BCF1090FCCBF0CF1370C0CF1300C052999
:1050200080F804C07BD003F00F03092B8CBF37330B
:1050300030330629437172D0D3784FEA231CBCF178
:10504000090FCCBF0CF1370C0CF1300C072980F89C
:1050500006C064D003F00F03092B8CBF3733303305
:105060000829C3715BD013794FEA231CBCF1090FE7
:10507000CCBF0CF1370C0CF1300C092980F808C0BA
:105080004DD003F00F03092B8CBF373330330A297F
:10509000437244D053794FEA231CBCF1090FCCBFB3
:1050A0000CF1370C0CF1300C0B2980F80AC036D00B
:1050B00003F00F03092B8CBF373330330C29C37235
:1050C0002DD093794FEA231CBCF1090FCCBF0CF112
:1050D000370C0CF1300C0D2980F80CC01FD003F0F8
:1050E0000F03092B8CBF373330330E29437316D08F
:1050F000D3791A11092ACCBF373230320F29827383
:105100000DD003F00F03092B94BF30333733102930
:10511000C37318BF103002D0002303707047002300
:1051200008440370704700BF741C0020704700BF24
:105130000022014B1A707047A11C00204B79FF2BF5
:105140000BD1887948B9CB79012B07D1082A05D929
:10515000034B8A7809201A7070470020704700BFFF
:10516000A11C002001207047012901D001207047B7
:1051700008B5104B91881B78994201D0002008BDDA
:105180005378012B08D0022BF8D100216422084665
:10519000FDF75EFC012008BD518811F480721ABF32
:1051A000C1F3C012480A4FF0FF3001F00301FDF7D0
:1051B000CFFC00BFA11C00200048704748730010BE
:1051C000012907D15378012B02D19388072B03D0F3
:1051D00000207047012070471146A623014A00F0C5
:1051E0001FBF00BFA07200100346012201481A70C1
:1051F000704700BF6C73001008B50B68B3F5966F6D
:1052000000D008BD00224FF0FF301146FDF7A0FC92
:1052100010B500F02DF90C231C4CFF22A3670E20C3
:105220001B49FCF7D3FD402200211A4801F054FE2F
:105230004FF0800C0120174A0023A2F822C05070C2
:1052400010464022144902830287144A8160436059
:10525000C2F88430C2F8803080F8213080F83B30CA
:1052600043620F4BC360C362803B836201F010FE58
:105270004FF0005C4FF4803201200A490A4B206451
:10528000C4F84CC0C4F89010DA6410BD000011508E
:105290009903002040180020840010500000105096
:1052A0000001105010D001000020115001210E20EB
:1052B000FCF718BD00220248114600F0F9B800BF03
:1052C00060180020044B197021B14FF40032034BD9
:1052D000C3F89020704700BF9E1C00200020115092
:1052E0000B785B0600D070474B78052BFBD14B88C1
:1052F000014ADBB21360F6E700001150CB782DE9CC
:10530000F04103F0030EBEF1010FC3F3010057D0CB
:1053100000268C78DFF8D4C004F07F02530089881F
:10532000984603EBD4130CEB4313E509D876C1F38D
:105330000A0185F001009C7019835870DE70D3005B
:105340006DBB254804330CEB82141F18A7601E5058
:105350006AB3224B03EBC20363603F318909BEF19C
:10536000020F14BF8B01CB011D4908EB05020CEBAA
:10537000421C0A681B48134483420B60CCF80C2083
:1053800028D882F0A04383F48013DCF8042043EA99
:105390008E6343F0004313600120BDE8F0810E48A6
:1053A0000CEB82140344A36240F832605AB91346EE
:1053B0000D4A0CEB451CCCF80C20CCF80430EBE784
:1053C0000020BDE8F081D20002F1A04202F5801277
:1053D0006262C2E7FDF7F0FB80001050040010503D
:1053E000481C0020FF0F10500001105040180020F2
:1053F00001F04EBD08B59646DFF81CC001F07F02F3
:10540000C80900EB42000CEB40101A46714600F050
:105410004FF8012008BD00BF4018002011F07F02A6
:1054200005D100290CBF02200120064B9866C9094E
:10543000054B01EB420003EB40104FF400620021EA
:1054400001F02ABD002011504018002011F07F0308
:1054500000D17047002205485B0003EBD11300EB3D
:1054600043106FF40061C27001F016BD40180020B7
:105470004FF0805209480A4908B50A4B02600A6099
:105480009968C94311F08051FAD14FF4805206480F
:1054900001F022FD0922054B5A6708BD0020024099
:1054A0000030024000000240000010500000115087
:1054B00000234FF0010C10B5016180F81AC0828200
:1054C000C382044601F004FD20B14FF40032074BC3
:1054D000C3F89020204601F003FD10B1012323778B
:1054E00010BD2046BDE8104001F0CEBC0020115098
:1054F0002DE9F0414FF000081B4C05464246237849
:105500001A4F1B4E0DE0336813EB421323D0DB68B8
:105510002846984708F1010823785FFA88F29342F9
:1055200006D39342A2EB0303EDD807EB4313EEE758
:10553000542200210F4801F0CFFC4FF0FF330D4CF7
:105540002022C4E90133C4E90333FF21BDE8F0415F
:10555000094801F0C1BC4FF0E023D3F8F03DDB0770
:1055600000D500BEBDE8F0819D1C00208C730010AA
:10557000D8150020E0160020F4160020704700BF68
:10558000704700BF0020704700207047704700BF81
:10559000704700BF704700BF704700BF024B58788C
:1055A000003818BF01207047E0160020024B187821
:1055B000C0F38000704700BFE01600202DE9F047DF
:1055C0002D4F3B78FF2B54D100293DD054228A46E1
:1055D00081460021294801F07FFC0022284C294BFC
:1055E00020461A70FCF788FD274B28481C60284C81
:1055F000FCF790FD204601F0DDFB264A264B1460A7
:1056000023B12648FFF7F0FD254B18604FF0000846
:10561000224C43462278234E214D0DE02A6812EB9E
:10562000431311D05B687BB1984708F101082278D9
:105630005FFA88F3934211D89342EFD39B1A06EB9B
:1056400043135B68002BEFD14FF0E023D3F8F03D1C
:10565000DB0700D500BE0020BDE8F0875146484674
:1056600087F80090FFF7D4FD0028EDD04846FFF7FB
:105670001DFE0120BDE8F0877C130020E01600200D
:10568000D81600209F1C002034170020741300201F
:105690006013002038170020E95100109D1C0020E5
:1056A000D81500208C730010A44B1B78FF2B00F042
:1056B00012812DE9F04FA24CA24DDFF89C82A24E40
:1056C0008BB027687B69EFF3108272B6D3E8CF0FF7
:1056D00001210028FAD1C3E8401F0028F6D1BFF30A
:1056E0005F8FBA61384607A901F0AAF900237A69E9
:1056F000C2E88F3FBB6983F31088002800F0C680A2
:105700009DF81D30013B072B00F28383DFE803F097
:10571000A3AD91998A350A04089B002BD1D0099832
:105720009847CEE79DF8201001F07F0705EB470072
:1057300000EBD11090F8343023F0010380F83430BE
:1057400090F8343023F0040380F83430002F00F058
:10575000A080027D98F800309A4280F08F807B4BC9
:105760001B6813EB421300F08A809F699DF821208B
:10577000099B9DF81C00B847A3E73378002B7ED027
:105780003378013B3370337803F0FF00002B98D15E
:10579000DFF8B0A19DF81CB09AF8003043F0010387
:1057A0008AF800309AF8343060F300038AF8343015
:1057B0009AF8343060F382038AF834309AF835303E
:1057C00060F300038AF835309AF8353060F38203CD
:1057D0008AF8353000F088FC9DF8203003F0600234
:1057E000602A66D0402A77D003F01F03012B00F017
:1057F000B580022B7CD0002B5BD1202A00F0E78102
:10580000002A56D19DF82130092B52D8DFE813F039
:10581000AB019B015100BD0151008C01620151009F
:105820005601E7002B78D9077FF54BAFFFF7B4FEA1
:1058300047E7EB78DA077FF544AF0898FFF7A0FE5B
:105840003FE72B78D8077FF53CAF2878C0F3C0003E
:10585000FFF7A0FE35E79DF81C00FFF749FE00F0BA
:1058600039FC9DF82030AB702BE79DF81C00FFF74A
:105870003FFE00F02FFCFFF78BFE22E711D04FF028
:10588000E023D3F8F03DDC0700D500BE0BB0BDE847
:10589000F08F099B9DF821209DF81C0000F038FC3A
:1058A0000FE72B4B61E7FFF71FFB0246002840F094
:1058B00085814FF0E023D3F8F03DDF0700D500BE2F
:1058C0009DF81C000021FFF7A9FD80219DF81C0018
:1058D000FFF7A4FDF5E670471E4800F005FC012126
:1058E000584608AAFFF76CFC00287FF4EAAEE7E709
:1058F0009DF8241011F0700FDBD1174801F07F03E1
:1059000090F800C00AEB430000EBD110007D604529
:1059100051D340F06E810E480090002A00F06D8156
:10592000009F786900F0E0FB012158467B6908AAD6
:10593000984700287FF4C5AEC2E700BF7C13002063
:1059400038170020E01600209F1C0020D8150020EA
:105950008C730010C15100109D1C00209DF8243054
:105960000F2BADD8B14A53441B791278934230D3F0
:10597000A6D1AF4F786900F0B7FB012158467B698B
:1059800008AA984700287FF49CAE9DF8203013F0B9
:10599000600795D19DF821300A3B012B90D800F08B
:1059A000A3FB9DF821300A2B00F00D82584608A970
:1059B00000F01AFB85E6DFF87CC2DCF800C00CEBD7
:1059C00040100090002A00F0188100283FF478AFC2
:1059D000A6E7984A176817EB4317CBD170E79AF8F8
:1059E00001209DF82230934200F05D819AF8012059
:1059F000002A40F0D2818AF80130002B00F051815A
:105A0000013BD8B2FFF770FA002800F06E814378AE
:105A1000022B40F06A81C2799AF80010C2F3401359
:105A20001B01C2F3801221F0300143EA42130B4301
:105A30008AF80030438800F10901C3180293029BE1
:105A40008B4240F2BD814B780B2B00F0C6810120C8
:105A5000042B40F04A810022029B01925B1A1FFA3C
:105A600083F9724B00921B7803901EE0714B1B6808
:105A700013EB421300F039811F694A4658460591DD
:105A80000493B847019B082803F10103059901938A
:105A900003D98145049B80F00B81644B9DF8042061
:105AA0001B7800929342C0F02081009A9342A2EBAF
:105AB0000303DBD85E4A02EB4313DDE79AF80130BB
:105AC00058468DF81A300DF11A02012308A900F08A
:105AD000A7FAF6E5BDF82200030A5A1EC0B20E2A44
